{
  "_format": "hh-sol-artifact-1",
  "contractName": "EntryPoint",
  "sourceName": "contracts/EntryPoint.sol",
  "abi": [
    {
      "anonymous": false,
      "inputs": [
        {
          "indexed": true,
          "internalType": "address",
          "name": "sender",
          "type": "address"
        }
      ],
      "name": "HandleOps",
      "type": "event"
    },
    {
      "inputs": [
        {
          "components": [
            {
              "internalType": "address",
              "name": "sender",
              "type": "address"
            },
            {
              "internalType": "uint256",
              "name": "nonce",
              "type": "uint256"
            },
            {
              "internalType": "bytes",
              "name": "initCode",
              "type": "bytes"
            },
            {
              "internalType": "bytes",
              "name": "callData",
              "type": "bytes"
            },
            {
              "internalType": "uint256",
              "name": "callGasLimit",
              "type": "uint256"
            },
            {
              "internalType": "uint256",
              "name": "verificationGasLimit",
              "type": "uint256"
            },
            {
              "internalType": "uint256",
              "name": "preVerificationGas",
              "type": "uint256"
            },
            {
              "internalType": "uint256",
              "name": "maxFeePerGas",
              "type": "uint256"
            },
            {
              "internalType": "uint256",
              "name": "maxPriorityFeePerGas",
              "type": "uint256"
            },
            {
              "internalType": "bytes",
              "name": "paymasterAndData",
              "type": "bytes"
            },
            {
              "internalType": "bytes",
              "name": "signature",
              "type": "bytes"
            }
          ],
          "internalType": "struct EntryPoint.UserOperation[]",
          "name": "ops",
          "type": "tuple[]"
        },
        {
          "internalType": "address",
          "name": "beneficiary",
          "type": "address"
        }
      ],
      "name": "handleOps",
      "outputs": [],
      "stateMutability": "nonpayable",
      "type": "function"
    }
  ],
  "bytecode": "0x6080604052348015600f57600080fd5b506102b88061001f6000396000f3fe608060405234801561001057600080fd5b506004361061002b5760003560e01c80631fad948c14610030575b600080fd5b61004a60048036038101906100459190610198565b61004c565b005b828260008181106100605761005f6101f8565b5b9050602002810190610072919061022c565b60000160208101906100849190610255565b73ffffffffffffffffffffffffffffffffffffffff167fe20422d7daaa97542f77d067103307488fe496805759ad0ad21a1a7552bcb6e460405160405180910390a2505050565b600080fd5b600080fd5b600080fd5b600080fd5b600080fd5b60008083601f8401126100fa576100f96100d5565b5b8235905067ffffffffffffffff811115610117576101166100da565b5b602083019150836020820283011115610133576101326100df565b5b9250929050565b600073ffffffffffffffffffffffffffffffffffffffff82169050919050565b60006101658261013a565b9050919050565b6101758161015a565b811461018057600080fd5b50565b6000813590506101928161016c565b92915050565b6000806000604084860312156101b1576101b06100cb565b5b600084013567ffffffffffffffff8111156101cf576101ce6100d0565b5b6101db868287016100e4565b935093505060206101ee86828701610183565b9150509250925092565b7f4e487b7100000000000000000000000000000000000000000000000000000000600052603260045260246000fd5b600080fd5b6000823560016101600383360303811261024957610248610227565b5b80830191505092915050565b60006020828403121561026b5761026a6100cb565b5b600061027984828501610183565b9150509291505056fea26469706673582212203aacf15e0d9ca17967f346ecf56cdf51c846359924cffd565babd1b296659ee364736f6c634300081c0033",
  "linkReferences": {},
  "deployedLinkReferences": {}
}